:200000000C9463000C948B000C948B000C948B000C948B000C948B000C948B000C94B30385
:200020000C948B000C948B000C948B000C948B000C948B000C948B000C948B000C94B1043E
:200040000C9467040C948B000C9435040C940F040C948B000C948B000C948B000C948B0032
:200060000C948B000C948B000000000023002600290000000000240027002A00000000083B
:2000800000020100000304070000000000000000010204081020408001020408102001020E
:2000A0000408102000000000250028002B0004040404040404040202020202020303030354
:2000C000030302003C0811241FBECFEFD8E0DEBFCDBF11E0A0E0B1E0E8EAF5E102C0059022
:2000E0000D92AC34B107D9F722E0ACE4B1E001C01D92A438B207E1F710E0C3E6D0E004C0EC
:200100002197FE010E94BD0AC236D107C9F70E941E050C94D20A0C940000AF92BF92CF925B
:20012000DF92EF92FF920F931F93CF93DF936C017B018B01040F151FEB015E01AE18BF0880
:20014000C017D10759F06991D601ED91FC910190F081E02DC6010995892B79F7C501DF91FD
:20016000CF911F910F91FF90EF90DF90CF90BF90AF900895FC01538D448D252F30E0842F03
:2001800090E0821B930B541710F0CF96089501970895FC01918D828D981761F0A28DAE0FFC
:2001A000BF2FB11D5D968C91928D9F5F9F73928F90E008958FEF9FEF0895FC01918D828D43
:2001C000981731F0828DE80FF11D858D90E008958FEF9FEF0895FC01918D228D892F90E081
:2001E000805C9F4F821B91098F739927089582E591E00E94EB0021E0892B09F420E0822FD7
:20020000089580E090E0892B29F00E94F70081110C9400000895FC01A48DA80FB92FB11DA1
:20022000A35ABF4F2C91848D90E001968F739927848FA689B7892C93A089B1898C91837068
:2002400080648C93938D848D981306C00288F389E02D80818F7D80830895EF92FF920F9385
:200260001F93CF93DF93EC0181E0888F9B8D8C8D98131AC0E889F989808185FF15C09FB72A
:20028000F894EE89FF896083E889F98980818370806480839FBF81E090E0DF91CF911F9173
:2002A0000F91FF90EF900895F62E0B8D10E00F5F1F4F0F731127E02E8C8D8E110CC00FB65A
:2002C00007FCFACFE889F989808185FFF5CFCE010E940B01F1CFEB8DEC0FFD2FF11DE35AEF
:2002E000FF4FF0829FB7F8940B8FEA89FB8980818062CFCFCF93DF93EC01888D8823B9F020
:20030000AA89BB89E889F9898C9185FD03C0808186FD0DC00FB607FCF7CF8C9185FFF2CFD0
:20032000808185FFEDCFCE010E940B01E9CFDF91CF91089590E0FC01E458FF4F2491FC0131
:20034000E057FF4F3491FC01E255FF4FE491EE23C9F0222339F0233001F1A8F4213019F1E8
:20036000223029F1F0E0EE0FFF1FEC55FF4FA591B4918FB7F894EC91611126C030953E234F
:200380003C938FBF08952730A9F02830C9F0243049F7809180008F7D03C0809180008F7717
:2003A00080938000DFCF84B58F7784BDDBCF84B58F7DFBCF8091B0008F778093B000D2CF98
:2003C0008091B0008F7DF9CF3E2BDACF9091060189130BC0E2ECF0E0E4919FEF909306011C
:2003E000E13049F028F0E23061F060E00C949A0110926E00FACF90916F009D7F90936F00A6
:20040000F4CF909170009D7F9093700091E09093B0009091B100987F94609093B100109242
:20042000B300E3CFCF93DF9390E0FC01E057FF4F249182559F4FFC0184918823D1F090E029
:20044000880F991FFC01EE58FF4FA591B491FC01EC55FF4FC591D49161110EC09FB7F894D8
:200460008C91E22FE0958E238C932881E223E8839FBFDF91CF9108958FB7F894EC91E22BC9
:20048000EC938FBFF6CF1F93CF93DF93182FEB0161E00E941202209739F460E0812FDF91D6
:2004A000CF911F910C949A01CF3FD10511F461E0F5CFE12FF0E0E458FF4FE491E33031F1EF
:2004C00040F4E130B1F0E230E1F0C038D1057CF7E4CFE73029F1E83059F1E430B1F78091FF
:2004E0008000806280938000D0938B00C0938A0004C084B5806884BDC7BDDF91CF911F9112
:20050000089584B5806284BDC8BDF7CF80918000806880938000D0938900C0938800EDCF08
:200520008091B00080688093B000C093B300E5CF8091B00080628093B000C093B400DDCF7C
:20054000CF93DF93CDB7DEB768970FB6F894DEBF0FBECDBF80915101882341F18FB7888FCB
:200560001FBEE0910701F09108013697CE01019693838283208131812A5F3F4F3093080117
:20058000209307010E946908892B59F4E0910701F0910801369770E060E0828193810E9473
:2005A000890886B5865088BD888D8FBF68960FB6F894DEBF0FBECDBFDF91CF910895CF93DD
:2005C000DF93CDB7DEB768970FB6F894DEBF0FBECDBF8FB7888F1FBEE0910701F09108010D
:2005E0003697CE0101969383828320E333E0309303022093020220813181AEEFB1E01196F0
:200600003C932E93B183A08324E032E030930801209307010E946908892B99F480910701E9
:200620009091080107979EBF8DBFE0910701F091080136970480F581E02D09950E94A00290
:20064000F4CF86B5865088BD888D8FBF789468960FB6F894DEBF0FBECDBFDF91CF91089560
:2006600093E0292E312CC3E2D0E02AE3422E512C612C712C812C912C54018A9460E083E05A
:200680000E949A01C1010197F1F761E083E00E949A01CE010197F1F760E083E00E949A01CB
:2006A000E2E9F0E06491E0EBF0E08491E82FF0E0EE0FFF1FE859FF4F8591949100E412E454
:2006C0002FE030E0462F0E94D904611571058105910529F06F5F7F4F8F4F9F4F9F70A301CB
:2006E00092010E94610A69017A0170E060E0FBE0CF16D104E104F10410F46FEF70E089E05B
:200700000E944302C701B6016F3171058105910520F06EE170E080E090E00E94520920E0C5
:2007200030E040EF51E40E94AA0820E030E04FE753E40E94E0090E9423096B017C0185E0CD
:200740000E944302C501B4016C197D098E099F0986E00E94430270E060E08AE00E944302BF
:200760000E94A0028BCF1F920F920FB60F9211242F933F934F935F936F937F938F939F931E
:20078000AF93BF93EF93FF938091F4019091F501A091F601B091F701892B8A2B8B2BD1F152
:2007A0009091EF01E091F001F091F1018081892780838091F4019091F501A091F601B09119
:2007C000F701181619061A061B069CF48091F4019091F501A091F601B091F7010197A10943
:2007E000B1098093F4019093F501A093F601B093F701FF91EF91BF91AF919F918F917F91B9
:200800006F915F914F913F912F910F900FBE0F901F901895809106010E94E601EACF1F9206
:200820000F920FB60F9211242F933F934F935F936F937F938F939F93AF93BF93EF93FF9304
:2008400082E591E00E940B01FF91EF91BF91AF919F918F917F916F915F914F913F912F91B2
:200860000F900FBE0F901F9018951F920F920FB60F9211242F938F939F93EF93FF93E09189
:200880006201F09163018081E0916801F091690182FD1BC0908180916B018F5F8F732091C1
:2008A0006C01821741F0E0916B01F0E0EE5AFE4F958F80936B01FF91EF919F918F912F91FC
:2008C0000F900FBE0F901F9018958081F4CF1F920F920FB60F9211242F933F938F939F9318
:2008E000AF93BF938091000290910102A0910202B09103023091500123E0230F2D3758F5BA
:200900000196A11DB11D209350018093000290930102A0930202B093030280914C01909177
:200920004D01A0914E01B0914F010196A11DB11D80934C0190934D01A0934E01B0934F014F
:20094000BF91AF919F918F913F912F910F900FBE0F901F90189526E8230F0296A11DB11D5C
:20096000D2CF0F920FB60F921F9211242F933F934F935F936F937F938F939F93AF93BF9385
:20098000EF93FF9315D0F8940E94A002FF91EF91BF91AF919F918F917F916F915F914F91BE
:2009A0003F912F911F900F900FBE0F90789408951895CF92DF92EF92FF920F931F93E82F48
:2009C000F92F05C0015011092109310961F1908196239417B9F305C0015011092109310954
:2009E00011F1908196239413F7CFC12CD12CE12CF12C0AC08FEFC81AD80AE80AF80A0C1589
:200A00001D052E053F0579F080818623841791F36C2D7D2D8E2D9F2D1F910F91FF90EF90E3
:200A2000DF90CF90089560E070E080E090E01F910F91FF90EF90DF90CF900895CF93DF934E
:200A400000D000D000D01F92CDB7DEB7789484B5826084BD84B5816084BD85B5826085BD3B
:200A600085B5816085BD80916E00816080936E0010928100809181008260809381008091FC
:200A80008100816080938100809180008160809380008091B10084608093B1008091B00030
:200AA00081608093B00080917A00846080937A0080917A00826080937A0080917A00816030
:200AC00080937A0080917A00806880937A001092C10061E08DE00E94120260E082E00E947E
:200AE000120261E083E00E94120261E089E00E941202E0916201F091630182E08083E09199
:200B00005E01F0915F011082E0916001F09161018FEC808310926A01E0916601F091670102
:200B200086E08083E0916401F0916501808180618083E0916401F091650180818860808301
:200B4000E0916401F0916501808180688083E0916401F091650180818F7D808361E085E079
:200B60000E94120261E086E00E94120261E08AE00E9412020E94DF0281E0809351010BE1CC
:200B800011E08BE491E08017910709F468C2F8016281738188EE93E00E944D0A7E836D838B
:200BA0002B01770F6608770820803180809106018B3009F07CC0E2ECF0E0F491FF83F7FDA4
:200BC000A9C161E08BE00E941202FF81FF2321F08F81823009F0D3C14101B12CA12C60E01B
:200BE00072E18AE790E0A50191010E94830A29833A834B835C8369017A0191E0C91AD10832
:200C0000E108F108EFEFCE16D104E104F10409F00CF458C160E472E48FE090E0A5019101BE
:200C20000E94830A69017A01F1E0CF1AD108E108F1088F81823009F0B1C082E09FEFC91630
:200C4000D104E104F10409F00CF435C160E970ED83E090E0A50191010E94830A69017A0131
:200C6000E1E0CE1AD108E108F10883E0FFEFCF16D104E104F10409F00CF41DC168E478EEA2
:200C800081E090E0A50191010E94830A69017A01F1E0CF1AD108E108F1088FEFC816D10491
:200CA000E104F10411F00CF0C7C084E004C18F3F09F030C18BE080930601E2ECF0E0F4914D
:200CC000FF83FF3F09F426C1F13031F158F0F23009F441C08F8187FD1DC161E08BE00E9405
:200CE000120276CF14BC15BC84B5826084BD85B5816085BDE9EBF0E08491E82FF0E0EE0FA4
:200D0000FF1FEC55FF4F85919491EBE9F0E084918093F3011F8255CF109280001092810021
:200D20008091810088608093810080918100816080938100E9EBF0E08491E82FF0E0EE0F01
:200D4000FF1FEC55FF4F85919491EBE9F0E084918093F20136CF1092B0001092B100809131
:200D6000B00082608093B0008091B10081608093B100E9EBF0E08491E82FF0E0EE0FFF1FFC
:200D8000EC55FF4F859194919093F1018093F001EBE9F0E084918093EF0113CF8FEFC81676
:200DA000D104E104F10409F00CF4E7C068E478EE81E090E0A50191010E94830A69017A0115
:200DC00091E0C91AD108E108F108EF8184E0E11143C083E09FEFC916D104E104F10409F0C3
:200DE0000CF474C062E17AE780E090E0A50194010E94830A69017A0181E0C81AD108E108F7
:200E0000F10884E09FEFC916D104E104F10409F008F45CC0C980DA80EB80FC808AE0F594CB
:200E2000E794D794C7948A95D1F7E1E0CE1AD108E108F10885E04AC064E274EF80E090E03E
:200E4000A50194010E94830A69017A01F1E0CF1AD108E108F10885E09FEFC916D104E10442
:200E6000F10449F140F162E17AE780E090E0A50194010E94830A69017A01E1E0CE1AD108CD
:200E8000E108F10886E0FFEFCF16D104E104F10491F088F0C980DA80EB80FC809AE0F59402
:200EA000E794D794C7949A95D1F791E0C91AD108E108F10887E09091B100987F892B8093D4
:200EC000B10008C081E0EF81E111F5CF95B5987F892B85BD2FEF3FEFA901411451046104B6
:200EE000710409F086C0FF81F13009F490C0F23009F49FC0F1110EC0C7BC2093FC0130930C
:200F0000FD014093FE015093FF0180916E00826080936E00C301B2010E94540926E636E69E
:200F200046EA5FE30E94E0090E941C098FB7F8948090000290900102A0900202B09003026D
:200F40008FBF6B01770FEE08FF082FB7F8948091000290910102A0910202B09103022FBF42
:200F600088199909AA09BB098C159D05AE05BF0508F06FC00E94A002E8CF82E0A4CFB12C29
:200F8000A12C60E072E18AE790E0A50191010E94830A69017A01F1E0CF1AD108E108F1084F
:200FA00091E0C114D10481E0E806F10484F068E478EE81E090E0A50191010E94830A69010A
:200FC0007A0191E0C91AD108E108F10893E0EF81E13009F07FCF80918100887F892B8093EC
:200FE00081002FEF3FEFA901411451046104710471F09101220F331FAD81BE810E94A20AC5
:2010000028EE33E040E050E00E94610A6CCFD0928900C09288002093F8013093F90140930E
:20102000FA015093FB0180916F00826080936F0071CFC092B3002093F4013093F501409379
:20104000F6015093F7018091700082608093700061CF88E00E94E6010C5F1F4F92CD80E01F
:2010600090E0892B09F48BCD0E94F700882309F486CD0E94000083CDE2E5F1E013821282B0
:2010800088EE93E0A0E0B0E084839583A683B7838DE091E09183808385EC90E095878487D8
:2010A00084EC90E09787868780EC90E0918B808B81EC90E0938B828B82EC90E0958B848B0D
:2010C00086EC90E0978B868B118E128E138E148E0895DC012D923D924D925D926D927D9295
:2010E0008D929D92AD92BD92CD92DD92ED92FD920D931D93CD93DD93FF91EF918DB78D93A4
:201100008EB78D938FB78D93ED93FD93882799270994DC01CB0181309105811D2D903D90D0
:201120004D905D906D907D908D909D90AD90BD90CD90DD90ED90FD900D911D91CD91DD911B
:20114000ED91FD910D90F894FEBF0FBEEDBFED91FD9109940E94BE080C94A6090E949F097A
:2011600058F00E94980940F029F45F3F29F00C948F0951110C94DA090C9495090E94B70923
:2011800068F39923B1F3552391F3951B550BBB27AA2762177307840738F09F5F5F4F220F52
:2011A000331F441FAA1FA9F335D00E2E3AF0E0E832D091505040E695001CCAF72BD0FE2FEF
:2011C00029D0660F771F881FBB1F261737074807AB07B0E809F0BB0B802DBF01FF27935839
:2011E0005F4F3AF09E3F510578F00C948F090C94DA095F3FE4F3983ED4F38695779567958C
:20120000B795F7959F5FC9F7880F911D9695879597F90895E1E0660F771F881FBB1F6217B9
:2012200073078407BA0720F0621B730B840BBA0BEE1F88F7E09508950E9423096894B1115F
:201240000C94DA0908950E94BF0988F09F5798F0B92F9927B751B0F0E1F0660F771F881F3B
:20126000991F1AF0BA95C9F714C0B13091F00E94D909B1E008950C94D909672F782F882747
:20128000B85F39F0B93FCCF3869577956795B395D9F73EF490958095709561957F4F8F4F09
:2012A0009F4F0895E89409C097FB3EF490958095709561957F4F8F4F9F4F9923A9F0F92F4E
:2012C00096E9BB279395F695879577956795B795F111F8CFFAF4BB0F11F460FF1BC06F5FFC
:2012E0007F4F8F4F9F4F16C0882311F096E911C0772321F09EE8872F762F05C0662371F047
:2013000096E8862F70E060E02AF09A95660F771F881FDAF7880F9695879597F9089597F9A3
:201320009F6780E870E060E008959FEF80EC089500240A9416161706180609060895002482
:201340000A9412161306140605060895092E0394000C11F4882352F0BB0F40F4BF2B11F433
:2013600060FF04C06F5F7F4F8F4F9F4F089557FD9058440F551F59F05F3F71F04795880F87
:2013800097FB991F61F09F3F79F087950895121613061406551FF2CF4695F1DF08C0161683
:2013A00017061806991FF1CF86957105610508940895E894BB2766277727CB0197F90895C8
:2013C0000E94F3090C94A6090E94980938F00E949F0920F0952311F00C948F090C9495092C
:2013E00011240C94DA090E94B70970F3959FC1F3950F50E0551F629FF001729FBB27F00D5E
:20140000B11D639FAA27F00DB11DAA1F649F6627B00DA11D661F829F2227B00DA11D621FA1
:20142000739FB00DA11D621F839FA00D611D221F749F3327A00D611D231F849F600D211D68
:20144000822F762F6A2F11249F5750409AF0F1F088234AF0EE0FFF1FBB1F661F771F881FDB
:2014600091505040A9F79E3F510580F00C948F090C94DA095F3FE4F3983ED4F386957795C4
:201480006795B795F795E7959F5FC1F7FE2B880F911D9695879597F9089597FB072E16F493
:2014A000009407D077FD09D00E94A90A07FC05D03EF4909581959F4F0895709561957F4F86
:2014C0000895A1E21A2EAA1BBB1BFD010DC0AA1FBB1FEE1FFF1FA217B307E407F50720F006
:2014E000A21BB30BE40BF50B661F771F881F991F1A9469F760957095809590959B01AC017D
:20150000BD01CF010895052E97FB1EF400940E949A0A57FD07D00E94610A07FC03D04EF49F
:201520000C949A0A50954095309521953F4F4F4F5F4F089590958095709561957F4F8F4FDA
:201540009F4F08950E94C30AB7FF0895821B930B0895AA1BBB1B51E107C0AA1FBB1FA61772
:20156000B70710F0A61BB70B881F991F5A95A9F780959095BC01CD010895EE0FFF1F05902A
:20158000F491E02D0994A29FB001B39FC001A39F700D811D1124911DB29F700D811D112436
:2015A000911D0895F894FFCF000100000000FF0601000000002D018D00BA007A01EB00C9DB
:2015C00000DD0088010400880104005D0104008801040000000400260104000000040026CC
:2015E000010400880104000B020400DC0304008801040000FFFFFFFFFFFFFFFFFFFFFFFFE4
:20160000010400000000002D018D00BA007A01EB00C900DD0000FFFFFFFFFFFFFFFFFFFF4E
:20162000FFFFFFFFFFFFFFFFFFFFFFFFFFFFFFFFFFFFFFFFFFFFFFFFFFFFFFFFFFFFFFFFCA
:20164000FFFFFFFFFFFFFFFFFFFFFFFFFFFFFFFFFFFFFFFFFFFFFFFFFFFFFFFFFFFFFFFFAA
:20166000FFFFFFFFFFFFFFFFFFFFFFFFFFFFFFFFFFFFFFFFFFFFFFFFFFFFFFFFFFFFFFFF8A
:2016800007D00E94170B07FC03D04EF40C94500B50954095309521953F4F4F4F5F4F0895F0
:2016A00090958095709561957F4F8F4F9F4F08950E94790BB7FF0895821B930B0895AA1BA8
:2016C000BB1B51E107C0AA1FBB1FA617B70710F0A61BB70B881F991F5A95A9F78095909572
:2016E000BC01CD010895EE0FFF1F0590F491E02D0994A29FB001B39FC001A39F700D811D81
:201700001124911DB29F700D811D1124911D0895F894FFCFFF88010400880104005D010425
:20172000008801040000000400260104000000040026010400880104000B020400DC03043D
:201740000088010400000000003F019F00CC008C01FD00DB00EF00000000008D00FD02C2AF
:2017600005000000008D00FD02D70200FFFFFFFFFFFFFFFFFFFFFFFFFFFFFFFFFFFFFFFF13
:20178000008C01FD00DB00EF00000000008D00FD02C205000000008D00FD02D70200FFFF3F
:2017A000FFFFFFFFFFFFFFFFFFFFFFFFFFFFFFFFFFFFFFFFFFFFFFFFFFFFFFFFFFFFFFFF49
:2017C000FFFFFFFFFFFFFFFFFFFFFFFFFFFFFFFFFFFFFFFFFFFFFFFFFFFFFFFFFFFFFFFF29
:2017E000FFFFFFFFFFFFFFFFFFFFFFFFFFFFFFFFFFFFFFFFFFFFFFFFFFFFFFFFFFFFFFFF09
:20180000FFFFFFFFFFFFFFFFFFFFFFFFFFFFFFFFFFFFFFFFFFFFFFFFFFFFFFFFFFFFFFFFE8
:207E0000112484B714BE81FFF0D085E08093810082E08093C00088E18093C10086E08093FC
:207E2000C20080E18093C4008EE0C9D0259A86E020E33CEF91E0309385002093840096BBAD
:207E4000B09BFECF1D9AA8958150A9F7CC24DD2488248394B5E0AB2EA1E19A2EF3E0BF2E79
:207E6000A2D0813461F49FD0082FAFD0023811F0013811F484E001C083E08DD089C0823404
:207E800011F484E103C0853419F485E0A6D080C0853579F488D0E82EFF2485D0082F10E0A0
:207EA000102F00270E291F29000F111F8ED068016FC0863521F484E090D080E0DECF84364D
:207EC00009F040C070D06FD0082F6DD080E0C81680E7D80618F4F601B7BEE895C0E0D1E0ED
:207EE00062D089930C17E1F7F0E0CF16F0E7DF0618F0F601B7BEE89568D007B600FCFDCF1A
:207F0000A601A0E0B1E02C9130E011968C91119790E0982F8827822B932B1296FA010C016F
:207F200087BEE89511244E5F5F4FF1E0A038BF0751F7F601A7BEE89507B600FCFDCF97BE85
:207F4000E89526C08437B1F42ED02DD0F82E2BD03CD0F601EF2C8F010F5F1F4F84911BD0B8
:207F6000EA94F801C1F70894C11CD11CFA94CF0CD11C0EC0853739F428D08EE10CD085E9AE
:207F80000AD08FE07ACF813511F488E018D01DD080E101D065CF982F8091C00085FFFCCF0A
:207FA0009093C60008958091C00087FFFCCF8091C00084FD01C0A8958091C6000895E0E68F
:207FC000F0E098E1908380830895EDDF803219F088E0F5DFFFCF84E1DECF1F93182FE3DF47
:207FE0001150E9F7F2DF1F91089580E0E8DFEE27FF270994FFFFFFFFFFFFFFFFFFFF040425
:00000001FF
